{
  "contractName": "Vote",
  "abi": [
    {
      "inputs": [
        {
          "internalType": "string",
          "name": "voteTitle",
          "type": "string"
        },
        {
          "internalType": "address",
          "name": "sender",
          "type": "address"
        }
      ],
      "stateMutability": "nonpayable",
      "type": "constructor"
    },
    {
      "inputs": [],
      "name": "acceptedVoteCount",
      "outputs": [
        {
          "internalType": "uint256",
          "name": "",
          "type": "uint256"
        }
      ],
      "stateMutability": "view",
      "type": "function"
    },
    {
      "inputs": [],
      "name": "owner",
      "outputs": [
        {
          "internalType": "address",
          "name": "",
          "type": "address"
        }
      ],
      "stateMutability": "view",
      "type": "function"
    },
    {
      "inputs": [],
      "name": "rejectedVoteCount",
      "outputs": [
        {
          "internalType": "uint256",
          "name": "",
          "type": "uint256"
        }
      ],
      "stateMutability": "view",
      "type": "function"
    },
    {
      "inputs": [],
      "name": "title",
      "outputs": [
        {
          "internalType": "string",
          "name": "",
          "type": "string"
        }
      ],
      "stateMutability": "view",
      "type": "function"
    },
    {
      "inputs": [
        {
          "internalType": "address",
          "name": "",
          "type": "address"
        }
      ],
      "name": "votes",
      "outputs": [
        {
          "internalType": "bool",
          "name": "",
          "type": "bool"
        }
      ],
      "stateMutability": "view",
      "type": "function"
    },
    {
      "inputs": [
        {
          "internalType": "bool",
          "name": "_vote",
          "type": "bool"
        }
      ],
      "name": "vote",
      "outputs": [],
      "stateMutability": "nonpayable",
      "type": "function"
    }
  ],
  "bytecode": "0x608060405234801562000010575f80fd5b5060405162000ca038038062000ca0833981810160405281019062000036919062000275565b805f806101000a81548173ffffffffffffffffffffffffffffffffffffffff021916908373ffffffffffffffffffffffffffffffffffffffff160217905550816001908162000086919062000510565b505050620005f4565b5f604051905090565b5f80fd5b5f80fd5b5f80fd5b5f80fd5b5f601f19601f8301169050919050565b7f4e487b71000000000000000000000000000000000000000000000000000000005f52604160045260245ffd5b620000f082620000a8565b810181811067ffffffffffffffff82111715620001125762000111620000b8565b5b80604052505050565b5f620001266200008f565b9050620001348282620000e5565b919050565b5f67ffffffffffffffff821115620001565762000155620000b8565b5b6200016182620000a8565b9050602081019050919050565b5f5b838110156200018d57808201518184015260208101905062000170565b5f8484015250505050565b5f620001ae620001a88462000139565b6200011b565b905082815260208101848484011115620001cd57620001cc620000a4565b5b620001da8482856200016e565b509392505050565b5f82601f830112620001f957620001f8620000a0565b5b81516200020b84826020860162000198565b91505092915050565b5f73ffffffffffffffffffffffffffffffffffffffff82169050919050565b5f6200023f8262000214565b9050919050565b620002518162000233565b81146200025c575f80fd5b50565b5f815190506200026f8162000246565b92915050565b5f80604083850312156200028e576200028d62000098565b5b5f83015167ffffffffffffffff811115620002ae57620002ad6200009c565b5b620002bc85828601620001e2565b9250506020620002cf858286016200025f565b9150509250929050565b5f81519050919050565b7f4e487b71000000000000000000000000000000000000000000000000000000005f52602260045260245ffd5b5f60028204905060018216806200032857607f821691505b6020821081036200033e576200033d620002e3565b5b50919050565b5f819050815f5260205f209050919050565b5f6020601f8301049050919050565b5f82821b905092915050565b5f60088302620003a27fffffffffffffffffffffffffffffffffffffffffffffffffffffffffffffffff8262000365565b620003ae868362000365565b95508019841693508086168417925050509392505050565b5f819050919050565b5f819050919050565b5f620003f8620003f2620003ec84620003c6565b620003cf565b620003c6565b9050919050565b5f819050919050565b6200041383620003d8565b6200042b6200042282620003ff565b84845462000371565b825550505050565b5f90565b6200044162000433565b6200044e81848462000408565b505050565b5b818110156200047557620004695f8262000437565b60018101905062000454565b5050565b601f821115620004c4576200048e8162000344565b620004998462000356565b81016020851015620004a9578190505b620004c1620004b88562000356565b83018262000453565b50505b505050565b5f82821c905092915050565b5f620004e65f1984600802620004c9565b1980831691505092915050565b5f620005008383620004d5565b9150826002028217905092915050565b6200051b82620002d9565b67ffffffffffffffff811115620005375762000536620000b8565b5b62000543825462000310565b6200055082828562000479565b5f60209050601f83116001811462000586575f841562000571578287015190505b6200057d8582620004f3565b865550620005ec565b601f198416620005968662000344565b5f5b82811015620005bf5784890151825560018201915060208501945060208101905062000598565b86831015620005df5784890151620005db601f891682620004d5565b8355505b6001600288020188555050505b505050505050565b61069e80620006025f395ff3fe608060405234801561000f575f80fd5b5060043610610060575f3560e01c806326e4a42e146100645780634a79d50c146100825780634b9f5c98146100a05780638da5cb5b146100bc5780639d03b315146100da578063d8bff5a5146100f8575b5f80fd5b61006c610128565b6040516100799190610333565b60405180910390f35b61008a61012e565b60405161009791906103d6565b60405180910390f35b6100ba60048036038101906100b5919061042f565b6101ba565b005b6100c46102d5565b6040516100d19190610499565b60405180910390f35b6100e26102f8565b6040516100ef9190610333565b60405180910390f35b610112600480360381019061010d91906104dc565b6102fe565b60405161011f9190610516565b60405180910390f35b60045481565b6001805461013b9061055c565b80601f01602080910402602001604051908101604052809291908181526020018280546101679061055c565b80156101b25780601f10610189576101008083540402835291602001916101b2565b820191905f5260205f20905b81548152906001019060200180831161019557829003601f168201915b505050505081565b60025f3373ffffffffffffffffffffffffffffffffffffffff1673ffffffffffffffffffffffffffffffffffffffff1681526020019081526020015f205f9054906101000a900460ff1615610244576040517f08c379a000000000000000000000000000000000000000000000000000000000815260040161023b906105d6565b60405180910390fd5b8060025f3373ffffffffffffffffffffffffffffffffffffffff1673ffffffffffffffffffffffffffffffffffffffff1681526020019081526020015f205f6101000a81548160ff02191690831515021790555080156102ba5760035f8154809291906102b090610621565b91905055506102d2565b60045f8154809291906102cc90610621565b91905055505b50565b5f8054906101000a900473ffffffffffffffffffffffffffffffffffffffff1681565b60035481565b6002602052805f5260405f205f915054906101000a900460ff1681565b5f819050919050565b61032d8161031b565b82525050565b5f6020820190506103465f830184610324565b92915050565b5f81519050919050565b5f82825260208201905092915050565b5f5b83811015610383578082015181840152602081019050610368565b5f8484015250505050565b5f601f19601f8301169050919050565b5f6103a88261034c565b6103b28185610356565b93506103c2818560208601610366565b6103cb8161038e565b840191505092915050565b5f6020820190508181035f8301526103ee818461039e565b905092915050565b5f80fd5b5f8115159050919050565b61040e816103fa565b8114610418575f80fd5b50565b5f8135905061042981610405565b92915050565b5f60208284031215610444576104436103f6565b5b5f6104518482850161041b565b91505092915050565b5f73ffffffffffffffffffffffffffffffffffffffff82169050919050565b5f6104838261045a565b9050919050565b61049381610479565b82525050565b5f6020820190506104ac5f83018461048a565b92915050565b6104bb81610479565b81146104c5575f80fd5b50565b5f813590506104d6816104b2565b92915050565b5f602082840312156104f1576104f06103f6565b5b5f6104fe848285016104c8565b91505092915050565b610510816103fa565b82525050565b5f6020820190506105295f830184610507565b92915050565b7f4e487b71000000000000000000000000000000000000000000000000000000005f52602260045260245ffd5b5f600282049050600182168061057357607f821691505b6020821081036105865761058561052f565b5b50919050565b7f596f75206861766520616c726561647920766f746564000000000000000000005f82015250565b5f6105c0601683610356565b91506105cb8261058c565b602082019050919050565b5f6020820190508181035f8301526105ed816105b4565b9050919050565b7f4e487b71000000000000000000000000000000000000000000000000000000005f52601160045260245ffd5b5f61062b8261031b565b91507fffffffffffffffffffffffffffffffffffffffffffffffffffffffffffffffff820361065d5761065c6105f4565b5b60018201905091905056fea26469706673582212206d2b683bbfc3f161c3e1be1c71ed4ca70e98afe7b77b6f023620bd6b32d0574e64736f6c63430008150033",
  "immutableReferences": {},
  "source": "// SPDX-License-Identifier: MIT\npragma solidity ^0.8.0;\n\ncontract VoteFactory{\n    address[] public deployedVotes;\n\n      function createVote(string memory voteTitle) public {\n        address newVote = address(new Vote(voteTitle, msg.sender));\n        \n        deployedVotes.push(newVote);\n    }\n\n     function getDeployedVotes() public view returns(address[] memory){\n        return deployedVotes;\n    }\n\n}\n\ncontract Vote {\n    address public owner;\n    string public title;\n    mapping(address => bool) public votes;\n    uint public acceptedVoteCount;\n    uint public rejectedVoteCount;\n\n    modifier hasNotVoted() {\n        require(!votes[msg.sender], \"You have already voted\");\n        _;\n    }\n\n    constructor(string memory voteTitle, address sender)  {\n        owner = sender;\n        title = voteTitle;\n    }\n\n    function vote(bool _vote) external hasNotVoted {\n        votes[msg.sender] = _vote;\n        if (_vote)\n            acceptedVoteCount++;\n        else\n            rejectedVoteCount++;\n        \n    }\n\n    \n\n}",
  "sourcePath": "/Users/amir/Desktop/Projects/voting-snap/contracts/contracts/vote.sol",
  "compiler": {
    "name": "solc",
    "version": "0.8.21+commit.d9974bed.Emscripten.clang"
  },
  "schemaVersion": "3.4.16",
  "updatedAt": "2023-11-18T17:09:48.705Z",
  "devdoc": {
    "kind": "dev",
    "methods": {},
    "version": 1
  },
  "userdoc": {
    "kind": "user",
    "methods": {},
    "version": 1
  }
}