{
  "contractName": "Vote",
  "abi": [
    {
      "inputs": [
        {
          "internalType": "string",
          "name": "voteTitle",
          "type": "string"
        },
        {
          "internalType": "address",
          "name": "sender",
          "type": "address"
        }
      ],
      "stateMutability": "nonpayable",
      "type": "constructor"
    },
    {
      "inputs": [],
      "name": "acceptedVoteCount",
      "outputs": [
        {
          "internalType": "uint256",
          "name": "",
          "type": "uint256"
        }
      ],
      "stateMutability": "view",
      "type": "function"
    },
    {
      "inputs": [],
      "name": "owner",
      "outputs": [
        {
          "internalType": "address",
          "name": "",
          "type": "address"
        }
      ],
      "stateMutability": "view",
      "type": "function"
    },
    {
      "inputs": [],
      "name": "rejectedVoteCount",
      "outputs": [
        {
          "internalType": "uint256",
          "name": "",
          "type": "uint256"
        }
      ],
      "stateMutability": "view",
      "type": "function"
    },
    {
      "inputs": [],
      "name": "title",
      "outputs": [
        {
          "internalType": "string",
          "name": "",
          "type": "string"
        }
      ],
      "stateMutability": "view",
      "type": "function"
    },
    {
      "inputs": [
        {
          "internalType": "address",
          "name": "",
          "type": "address"
        }
      ],
      "name": "votes",
      "outputs": [
        {
          "internalType": "bool",
          "name": "",
          "type": "bool"
        }
      ],
      "stateMutability": "view",
      "type": "function"
    },
    {
      "inputs": [
        {
          "internalType": "bool",
          "name": "_vote",
          "type": "bool"
        }
      ],
      "name": "vote",
      "outputs": [],
      "stateMutability": "nonpayable",
      "type": "function"
    },
    {
      "inputs": [],
      "name": "getSummery",
      "outputs": [
        {
          "internalType": "string",
          "name": "",
          "type": "string"
        },
        {
          "internalType": "bool",
          "name": "",
          "type": "bool"
        }
      ],
      "stateMutability": "view",
      "type": "function"
    }
  ],
  "bytecode": "0x60806040523480156200001157600080fd5b5060405162000bd238038062000bd28339818101604052810190620000379190620001d1565b806000806101000a81548173ffffffffffffffffffffffffffffffffffffffff021916908373ffffffffffffffffffffffffffffffffffffffff16021790555081600190805190602001906200008f92919062000098565b505050620003aa565b828054620000a690620002fc565b90600052602060002090601f016020900481019282620000ca576000855562000116565b82601f10620000e557805160ff191683800117855562000116565b8280016001018555821562000116579182015b8281111562000115578251825591602001919060010190620000f8565b5b50905062000125919062000129565b5090565b5b80821115620001445760008160009055506001016200012a565b5090565b60006200015f62000159846200025f565b6200022b565b9050828152602081018484840111156200017857600080fd5b62000185848285620002c6565b509392505050565b6000815190506200019e8162000390565b92915050565b600082601f830112620001b657600080fd5b8151620001c884826020860162000148565b91505092915050565b60008060408385031215620001e557600080fd5b600083015167ffffffffffffffff8111156200020057600080fd5b6200020e85828601620001a4565b925050602062000221858286016200018d565b9150509250929050565b6000604051905081810181811067ffffffffffffffff8211171562000255576200025462000361565b5b8060405250919050565b600067ffffffffffffffff8211156200027d576200027c62000361565b5b601f19601f8301169050602081019050919050565b60006200029f82620002a6565b9050919050565b600073ffffffffffffffffffffffffffffffffffffffff82169050919050565b60005b83811015620002e6578082015181840152602081019050620002c9565b83811115620002f6576000848401525b50505050565b600060028204905060018216806200031557607f821691505b602082108114156200032c576200032b62000332565b5b50919050565b7f4e487b7100000000000000000000000000000000000000000000000000000000600052602260045260246000fd5b7f4e487b7100000000000000000000000000000000000000000000000000000000600052604160045260246000fd5b6200039b8162000292565b8114620003a757600080fd5b50565b61081880620003ba6000396000f3fe608060405234801561001057600080fd5b506004361061007d5760003560e01c80638da5cb5b1161005b5780638da5cb5b146100da5780639d03b315146100f8578063d8bff5a514610116578063f146b3d0146101465761007d565b806326e4a42e146100825780634a79d50c146100a05780634b9f5c98146100be575b600080fd5b61008a610165565b6040516100979190610618565b60405180910390f35b6100a861016b565b6040516100b591906105a6565b60405180910390f35b6100d860048036038101906100d391906104a1565b6101f9565b005b6100e261031d565b6040516100ef9190610570565b60405180910390f35b610100610341565b60405161010d9190610618565b60405180910390f35b610130600480360381019061012b9190610478565b610347565b60405161013d919061058b565b60405180910390f35b61014e610367565b60405161015c9291906105c8565b60405180910390f35b60045481565b60018054610178906106ca565b80601f01602080910402602001604051908101604052809291908181526020018280546101a4906106ca565b80156101f15780601f106101c6576101008083540402835291602001916101f1565b820191906000526020600020905b8154815290600101906020018083116101d457829003601f168201915b505050505081565b600260003373ffffffffffffffffffffffffffffffffffffffff1673ffffffffffffffffffffffffffffffffffffffff16815260200190815260200160002060009054906101000a900460ff1615610286576040517f08c379a000000000000000000000000000000000000000000000000000000000815260040161027d906105f8565b60405180910390fd5b6001600260003373ffffffffffffffffffffffffffffffffffffffff1673ffffffffffffffffffffffffffffffffffffffff16815260200190815260200160002060006101000a81548160ff021916908315150217905550801561030157600360008154809291906102f7906106fc565b919050555061031a565b60046000815480929190610314906106fc565b91905055505b50565b60008054906101000a900473ffffffffffffffffffffffffffffffffffffffff1681565b60035481565b60026020528060005260406000206000915054906101000a900460ff1681565b606060006001600260003373ffffffffffffffffffffffffffffffffffffffff1673ffffffffffffffffffffffffffffffffffffffff16815260200190815260200160002060009054906101000a900460ff168180546103c6906106ca565b80601f01602080910402602001604051908101604052809291908181526020018280546103f2906106ca565b801561043f5780601f106104145761010080835404028352916020019161043f565b820191906000526020600020905b81548152906001019060200180831161042257829003601f168201915b50505050509150915091509091565b60008135905061045d816107b4565b92915050565b600081359050610472816107cb565b92915050565b60006020828403121561048a57600080fd5b60006104988482850161044e565b91505092915050565b6000602082840312156104b357600080fd5b60006104c184828501610463565b91505092915050565b6104d38161064f565b82525050565b6104e281610661565b82525050565b60006104f382610633565b6104fd818561063e565b935061050d818560208601610697565b610516816107a3565b840191505092915050565b600061052e60168361063e565b91507f596f75206861766520616c726561647920766f746564000000000000000000006000830152602082019050919050565b61056a8161068d565b82525050565b600060208201905061058560008301846104ca565b92915050565b60006020820190506105a060008301846104d9565b92915050565b600060208201905081810360008301526105c081846104e8565b905092915050565b600060408201905081810360008301526105e281856104e8565b90506105f160208301846104d9565b9392505050565b6000602082019050818103600083015261061181610521565b9050919050565b600060208201905061062d6000830184610561565b92915050565b600081519050919050565b600082825260208201905092915050565b600061065a8261066d565b9050919050565b60008115159050919050565b600073ffffffffffffffffffffffffffffffffffffffff82169050919050565b6000819050919050565b60005b838110156106b557808201518184015260208101905061069a565b838111156106c4576000848401525b50505050565b600060028204905060018216806106e257607f821691505b602082108114156106f6576106f5610774565b5b50919050565b60006107078261068d565b91507fffffffffffffffffffffffffffffffffffffffffffffffffffffffffffffffff82141561073a57610739610745565b5b600182019050919050565b7f4e487b7100000000000000000000000000000000000000000000000000000000600052601160045260246000fd5b7f4e487b7100000000000000000000000000000000000000000000000000000000600052602260045260246000fd5b6000601f19601f8301169050919050565b6107bd8161064f565b81146107c857600080fd5b50565b6107d481610661565b81146107df57600080fd5b5056fea264697066735822122093a6e85e2795f692f0bc8aee2d1f3c2e435856091dc211a14651c148dcfbd00364736f6c63430008000033",
  "immutableReferences": {},
  "source": "// SPDX-License-Identifier: MIT\npragma solidity ^0.8.0;\n\ncontract VoteFactory{\n    address[] public deployedVotes;\n\n      function createVote(string memory voteTitle) public {\n        address newVote = address(new Vote(voteTitle, msg.sender));\n        \n        deployedVotes.push(newVote);\n    }\n\n     function getDeployedVotes() public view returns(address[] memory){\n        return deployedVotes;\n    }\n\n}\n\ncontract Vote {\n    address public owner;\n    string public title;\n    mapping(address => bool) public votes;\n    uint public acceptedVoteCount;\n    uint public rejectedVoteCount;\n\n    modifier hasNotVoted() {\n        require(!votes[msg.sender], \"You have already voted\");\n        _;\n    }\n\n    constructor(string memory voteTitle, address sender)  {\n        owner = sender;\n        title = voteTitle;\n    }\n\n    function vote(bool _vote) external hasNotVoted {\n        votes[msg.sender] = true;\n        if (_vote)\n            acceptedVoteCount++;\n        else\n            rejectedVoteCount++;\n        \n    }\n\n    function getSummery() public view returns (string memory, bool){\n        return(title,votes[msg.sender]);\n    }\n    \n}\n",
  "sourcePath": "/Users/amir/Desktop/Projects/voting-snap/contracts/contracts/vote.sol",
  "compiler": {
    "name": "solc",
    "version": "0.8.0+commit.c7dfd78e.Emscripten.clang"
  },
  "schemaVersion": "3.4.16",
  "updatedAt": "2023-11-19T02:21:35.052Z",
  "devdoc": {
    "kind": "dev",
    "methods": {},
    "version": 1
  },
  "userdoc": {
    "kind": "user",
    "methods": {},
    "version": 1
  }
}