{
  "contractName": "Vote",
  "abi": [
    {
      "inputs": [],
      "stateMutability": "nonpayable",
      "type": "constructor"
    },
    {
      "inputs": [],
      "name": "questionCount",
      "outputs": [
        {
          "internalType": "uint256",
          "name": "",
          "type": "uint256"
        }
      ],
      "stateMutability": "view",
      "type": "function"
    },
    {
      "inputs": [
        {
          "internalType": "uint256",
          "name": "",
          "type": "uint256"
        }
      ],
      "name": "questions",
      "outputs": [
        {
          "internalType": "string",
          "name": "text",
          "type": "string"
        }
      ],
      "stateMutability": "view",
      "type": "function"
    },
    {
      "inputs": [
        {
          "internalType": "string",
          "name": "questionTitle",
          "type": "string"
        }
      ],
      "name": "addQuestion",
      "outputs": [],
      "stateMutability": "nonpayable",
      "type": "function"
    },
    {
      "inputs": [
        {
          "internalType": "uint256",
          "name": "questionId",
          "type": "uint256"
        },
        {
          "internalType": "string",
          "name": "option",
          "type": "string"
        }
      ],
      "name": "vote",
      "outputs": [],
      "stateMutability": "nonpayable",
      "type": "function"
    },
    {
      "inputs": [
        {
          "internalType": "uint256",
          "name": "questionId",
          "type": "uint256"
        },
        {
          "internalType": "string",
          "name": "option",
          "type": "string"
        }
      ],
      "name": "getVotes",
      "outputs": [
        {
          "internalType": "uint256",
          "name": "",
          "type": "uint256"
        }
      ],
      "stateMutability": "view",
      "type": "function"
    }
  ],
  "bytecode": "0x608060405234801561000f575f80fd5b505f600181905550610b61806100245f395ff3fe608060405234801561000f575f80fd5b5060043610610055575f3560e01c80631468aa2c14610059578063241084751461007757806331b1b97814610093578063e76d28ad146100c3578063f129dbd9146100f3575b5f80fd5b61006161010f565b60405161006e919061035e565b60405180910390f35b610091600480360381019061008c91906104ee565b610115565b005b6100ad60048036038101906100a89190610548565b610214565b6040516100ba91906105ed565b60405180910390f35b6100dd60048036038101906100d891906104ee565b6102b3565b6040516100ea919061035e565b60405180910390f35b61010d6004803603810190610108919061060d565b61030a565b005b60015481565b5f81604051602001610127919061068e565b60405160208183030381529060405280519060200120905060405160200161014e906106ee565b60405160208183030381529060405280519060200120811480610194575060405160200161017b9061074c565b6040516020818303038152906040528051906020012081145b6101d3576040517f08c379a00000000000000000000000000000000000000000000000000000000081526004016101ca906107d0565b60405180910390fd5b5f805f8581526020019081526020015f209050806001015f8381526020019081526020015f205f8154809291906102099061081b565b919050555050505050565b5f602052805f5260405f205f91509050805f0180546102329061088f565b80601f016020809104026020016040519081016040528092919081815260200182805461025e9061088f565b80156102a95780601f10610280576101008083540402835291602001916102a9565b820191905f5260205f20905b81548152906001019060200180831161028c57829003601f168201915b5050505050905081565b5f80826040516020016102c6919061068e565b6040516020818303038152906040528051906020012090505f808581526020019081526020015f206001015f8281526020019081526020015f205491505092915050565b60015f81548092919061031c9061081b565b9190505550805f8060015481526020019081526020015f205f0190816103429190610a5c565b5050565b5f819050919050565b61035881610346565b82525050565b5f6020820190506103715f83018461034f565b92915050565b5f604051905090565b5f80fd5b5f80fd5b61039181610346565b811461039b575f80fd5b50565b5f813590506103ac81610388565b92915050565b5f80fd5b5f80fd5b5f601f19601f8301169050919050565b7f4e487b71000000000000000000000000000000000000000000000000000000005f52604160045260245ffd5b610400826103ba565b810181811067ffffffffffffffff8211171561041f5761041e6103ca565b5b80604052505050565b5f610431610377565b905061043d82826103f7565b919050565b5f67ffffffffffffffff82111561045c5761045b6103ca565b5b610465826103ba565b9050602081019050919050565b828183375f83830152505050565b5f61049261048d84610442565b610428565b9050828152602081018484840111156104ae576104ad6103b6565b5b6104b9848285610472565b509392505050565b5f82601f8301126104d5576104d46103b2565b5b81356104e5848260208601610480565b91505092915050565b5f806040838503121561050457610503610380565b5b5f6105118582860161039e565b925050602083013567ffffffffffffffff81111561053257610531610384565b5b61053e858286016104c1565b9150509250929050565b5f6020828403121561055d5761055c610380565b5b5f61056a8482850161039e565b91505092915050565b5f81519050919050565b5f82825260208201905092915050565b5f5b838110156105aa57808201518184015260208101905061058f565b5f8484015250505050565b5f6105bf82610573565b6105c9818561057d565b93506105d981856020860161058d565b6105e2816103ba565b840191505092915050565b5f6020820190508181035f83015261060581846105b5565b905092915050565b5f6020828403121561062257610621610380565b5b5f82013567ffffffffffffffff81111561063f5761063e610384565b5b61064b848285016104c1565b91505092915050565b5f81905092915050565b5f61066882610573565b6106728185610654565b935061068281856020860161058d565b80840191505092915050565b5f610699828461065e565b915081905092915050565b7f59657300000000000000000000000000000000000000000000000000000000005f82015250565b5f6106d8600383610654565b91506106e3826106a4565b600382019050919050565b5f6106f8826106cc565b9150819050919050565b7f4e6f0000000000000000000000000000000000000000000000000000000000005f82015250565b5f610736600283610654565b915061074182610702565b600282019050919050565b5f6107568261072a565b9150819050919050565b7f496e76616c6964206f7074696f6e2e204f6e6c79202759657327206f7220274e5f8201527f6f272061726520616c6c6f7765642e0000000000000000000000000000000000602082015250565b5f6107ba602f8361057d565b91506107c582610760565b604082019050919050565b5f6020820190508181035f8301526107e7816107ae565b9050919050565b7f4e487b71000000000000000000000000000000000000000000000000000000005f52601160045260245ffd5b5f61082582610346565b91507fffffffffffffffffffffffffffffffffffffffffffffffffffffffffffffffff8203610857576108566107ee565b5b600182019050919050565b7f4e487b71000000000000000000000000000000000000000000000000000000005f52602260045260245ffd5b5f60028204905060018216806108a657607f821691505b6020821081036108b9576108b8610862565b5b50919050565b5f819050815f5260205f209050919050565b5f6020601f8301049050919050565b5f82821b905092915050565b5f6008830261091b7fffffffffffffffffffffffffffffffffffffffffffffffffffffffffffffffff826108e0565b61092586836108e0565b95508019841693508086168417925050509392505050565b5f819050919050565b5f61096061095b61095684610346565b61093d565b610346565b9050919050565b5f819050919050565b61097983610946565b61098d61098582610967565b8484546108ec565b825550505050565b5f90565b6109a1610995565b6109ac818484610970565b505050565b5b818110156109cf576109c45f82610999565b6001810190506109b2565b5050565b601f821115610a14576109e5816108bf565b6109ee846108d1565b810160208510156109fd578190505b610a11610a09856108d1565b8301826109b1565b50505b505050565b5f82821c905092915050565b5f610a345f1984600802610a19565b1980831691505092915050565b5f610a4c8383610a25565b9150826002028217905092915050565b610a6582610573565b67ffffffffffffffff811115610a7e57610a7d6103ca565b5b610a88825461088f565b610a938282856109d3565b5f60209050601f831160018114610ac4575f8415610ab2578287015190505b610abc8582610a41565b865550610b23565b601f198416610ad2866108bf565b5f5b82811015610af957848901518255600182019150602085019450602081019050610ad4565b86831015610b165784890151610b12601f891682610a25565b8355505b6001600288020188555050505b50505050505056fea26469706673582212200912df8f9aa9c657e73b2a073157a64546c5bb9e614d0698177944eadac752b164736f6c63430008150033",
  "immutableReferences": {},
  "source": "// SPDX-License-Identifier: MIT\npragma solidity ^0.8.0;\n\ncontract Vote {\n    struct Question {\n        string text;\n        mapping(bytes32 => uint256) votes;\n    }\n\n    mapping(uint256 => Question) public questions;\n    uint256 public questionCount;\n\n    constructor() {\n        questionCount = 0;\n    }\n\n    function addQuestion(string memory questionTitle) public {\n        questionCount++;\n        questions[questionCount].text = questionTitle;\n    }\n\n    function vote(uint256 questionId, string memory option) public {\n        bytes32 normalizedOption = keccak256(abi.encodePacked(option));\n        require(normalizedOption == keccak256(abi.encodePacked(\"Yes\")) ||\n                normalizedOption == keccak256(abi.encodePacked(\"No\")),\n                \"Invalid option. Only 'Yes' or 'No' are allowed.\");\n\n        Question storage q = questions[questionId];\n        q.votes[normalizedOption]++;\n    }\n\n    function getVotes(uint256 questionId, string memory option) public view returns (uint256) {\n        bytes32 normalizedOption = keccak256(abi.encodePacked(option));\n        return questions[questionId].votes[normalizedOption];\n    }\n}\n\n",
  "sourcePath": "/Users/amir/Desktop/Projects/voting-snap/packages/contracts/contracts/vote.sol",
  "compiler": {
    "name": "solc",
    "version": "0.8.21+commit.d9974bed.Emscripten.clang"
  },
  "schemaVersion": "3.4.16",
  "updatedAt": "2023-11-17T20:50:45.533Z",
  "devdoc": {
    "kind": "dev",
    "methods": {},
    "version": 1
  },
  "userdoc": {
    "kind": "user",
    "methods": {},
    "version": 1
  }
}