{
  "contractName": "VoteBuilder",
  "abi": [
    {
      "inputs": [
        {
          "internalType": "address",
          "name": "voteContractAddress",
          "type": "address"
        }
      ],
      "stateMutability": "nonpayable",
      "type": "constructor"
    },
    {
      "inputs": [],
      "name": "voteContract",
      "outputs": [
        {
          "internalType": "contract Vote",
          "name": "",
          "type": "address"
        }
      ],
      "stateMutability": "view",
      "type": "function"
    },
    {
      "inputs": [
        {
          "internalType": "string",
          "name": "questionTitle",
          "type": "string"
        }
      ],
      "name": "createVote",
      "outputs": [],
      "stateMutability": "nonpayable",
      "type": "function"
    },
    {
      "inputs": [
        {
          "internalType": "uint256",
          "name": "questionId",
          "type": "uint256"
        },
        {
          "internalType": "string",
          "name": "option",
          "type": "string"
        }
      ],
      "name": "submitVote",
      "outputs": [],
      "stateMutability": "nonpayable",
      "type": "function"
    },
    {
      "inputs": [
        {
          "internalType": "uint256",
          "name": "questionId",
          "type": "uint256"
        },
        {
          "internalType": "string",
          "name": "option",
          "type": "string"
        }
      ],
      "name": "getResult",
      "outputs": [
        {
          "internalType": "uint256",
          "name": "",
          "type": "uint256"
        }
      ],
      "stateMutability": "view",
      "type": "function"
    }
  ],
  "bytecode": "0x608060405234801561000f575f80fd5b506040516107d23803806107d2833981810160405281019061003191906100d4565b805f806101000a81548173ffffffffffffffffffffffffffffffffffffffff021916908373ffffffffffffffffffffffffffffffffffffffff160217905550506100ff565b5f80fd5b5f73ffffffffffffffffffffffffffffffffffffffff82169050919050565b5f6100a38261007a565b9050919050565b6100b381610099565b81146100bd575f80fd5b50565b5f815190506100ce816100aa565b92915050565b5f602082840312156100e9576100e8610076565b5b5f6100f6848285016100c0565b91505092915050565b6106c68061010c5f395ff3fe608060405234801561000f575f80fd5b506004361061004a575f3560e01c806313292a021461004e57806366b9e25d1461006a578063ae80806e1461009a578063ee183c4a146100b6575b5f80fd5b610068600480360381019061006391906103fa565b6100d4565b005b610084600480360381019061007f9190610474565b61015c565b60405161009191906104dd565b60405180910390f35b6100b460048036038101906100af9190610474565b6101ff565b005b6100be61028a565b6040516100cb9190610570565b60405180910390f35b5f8054906101000a900473ffffffffffffffffffffffffffffffffffffffff1673ffffffffffffffffffffffffffffffffffffffff1663f129dbd9826040518263ffffffff1660e01b815260040161012c9190610603565b5f604051808303815f87803b158015610143575f80fd5b505af1158015610155573d5f803e3d5ffd5b5050505050565b5f805f9054906101000a900473ffffffffffffffffffffffffffffffffffffffff1673ffffffffffffffffffffffffffffffffffffffff1663e76d28ad84846040518363ffffffff1660e01b81526004016101b8929190610623565b602060405180830381865afa1580156101d3573d5f803e3d5ffd5b505050506040513d601f19601f820116820180604052508101906101f79190610665565b905092915050565b5f8054906101000a900473ffffffffffffffffffffffffffffffffffffffff1673ffffffffffffffffffffffffffffffffffffffff16632410847583836040518363ffffffff1660e01b8152600401610259929190610623565b5f604051808303815f87803b158015610270575f80fd5b505af1158015610282573d5f803e3d5ffd5b505050505050565b5f8054906101000a900473ffffffffffffffffffffffffffffffffffffffff1681565b5f604051905090565b5f80fd5b5f80fd5b5f80fd5b5f80fd5b5f601f19601f8301169050919050565b7f4e487b71000000000000000000000000000000000000000000000000000000005f52604160045260245ffd5b61030c826102c6565b810181811067ffffffffffffffff8211171561032b5761032a6102d6565b5b80604052505050565b5f61033d6102ad565b90506103498282610303565b919050565b5f67ffffffffffffffff821115610368576103676102d6565b5b610371826102c6565b9050602081019050919050565b828183375f83830152505050565b5f61039e6103998461034e565b610334565b9050828152602081018484840111156103ba576103b96102c2565b5b6103c584828561037e565b509392505050565b5f82601f8301126103e1576103e06102be565b5b81356103f184826020860161038c565b91505092915050565b5f6020828403121561040f5761040e6102b6565b5b5f82013567ffffffffffffffff81111561042c5761042b6102ba565b5b610438848285016103cd565b91505092915050565b5f819050919050565b61045381610441565b811461045d575f80fd5b50565b5f8135905061046e8161044a565b92915050565b5f806040838503121561048a576104896102b6565b5b5f61049785828601610460565b925050602083013567ffffffffffffffff8111156104b8576104b76102ba565b5b6104c4858286016103cd565b9150509250929050565b6104d781610441565b82525050565b5f6020820190506104f05f8301846104ce565b92915050565b5f73ffffffffffffffffffffffffffffffffffffffff82169050919050565b5f819050919050565b5f61053861053361052e846104f6565b610515565b6104f6565b9050919050565b5f6105498261051e565b9050919050565b5f61055a8261053f565b9050919050565b61056a81610550565b82525050565b5f6020820190506105835f830184610561565b92915050565b5f81519050919050565b5f82825260208201905092915050565b5f5b838110156105c05780820151818401526020810190506105a5565b5f8484015250505050565b5f6105d582610589565b6105df8185610593565b93506105ef8185602086016105a3565b6105f8816102c6565b840191505092915050565b5f6020820190508181035f83015261061b81846105cb565b905092915050565b5f6040820190506106365f8301856104ce565b818103602083015261064881846105cb565b90509392505050565b5f8151905061065f8161044a565b92915050565b5f6020828403121561067a576106796102b6565b5b5f61068784828501610651565b9150509291505056fea2646970667358221220806e63d7a78c96f29bf0328259178c5c103254b8b0c6cf86932e675b118fac9064736f6c63430008150033",
  "immutableReferences": {},
  "source": "// SPDX-License-Identifier: MIT\npragma solidity ^0.8.0;\n\nimport \"./Vote.sol\";\n\ncontract VoteBuilder {\n    Vote public voteContract;\n\n    constructor(address voteContractAddress) {\n        voteContract = Vote(voteContractAddress);\n    }\n\n    function createVote(string memory questionTitle) public {\n        voteContract.addQuestion(questionTitle);\n    }\n\n    function submitVote(uint256 questionId, string memory option) public {\n        voteContract.vote(questionId, option);\n    }\n\n    function getResult(uint256 questionId, string memory option) public view returns (uint256) {\n        return voteContract.getVotes(questionId, option);\n    }\n}\n",
  "sourcePath": "/Users/amir/Desktop/Projects/voting-snap/packages/contracts/contracts/votebuilder.sol",
  "compiler": {
    "name": "solc",
    "version": "0.8.21+commit.d9974bed.Emscripten.clang"
  },
  "schemaVersion": "3.4.16",
  "updatedAt": "2023-11-17T20:50:45.536Z",
  "devdoc": {
    "kind": "dev",
    "methods": {},
    "version": 1
  },
  "userdoc": {
    "kind": "user",
    "methods": {},
    "version": 1
  }
}